:020000040800F2
:10000000D8240020D5000008DD000008DF0000082B
:1000100000000000000000000000000000000000E0
:10002000000000000000000000000000E1000008E7
:100030000000000000000000E300000839D40008C0
:10004000E7000008E70000080D8B0008E700000843
:10005000E7000008111500082115000831150008F7
:10006000E7000008E7000008E7000008E7000008D4
:10007000E7000008E7000008E7000008E7000008C4
:10008000E7000008E7000008E700000800000000A3
:10009000E7000008E7000008E7000008E7000008A4
:1000A000E7000008E7000008E70000084DE100084D
:1000B000E7000008E700000800000000E700000873
:1000C0000348854600F038FC0048004771EE000800
:1000D000D82400200448804704480047FEE7FEE794
:1000E000FEE7FEE7FEE7FEE7BDD60008C100000818
:1000F00030B50B46014600202022012409E00D46C0
:10010000D5409D4205D31D469540491B2546954047
:1001100040191546521E002DF1DC30BD70B500248B
:100120002546002801DA01244042002901DA012590
:100130004942FFF7DDFFAC4200D04042002C00D026
:10014000494270BDF0B51FB40646002082B0054696
:100150004024019100901BE0019922460F46304651
:1001600000F0E8FA049A059B801A994110D31046D2
:100170001946224600F0CEFA361A8F4101972246E0
:1001800001200021009F00F0C5FA38184D41009071
:100190002046641E0028DFDC019B00982946324679
:1001A00007B0F0BD03460B439B0703D009E008C925
:1001B000121F08C0042AFAD203E00B780370401C17
:1001C000491C521EF9D27047D2B201E00270401CA5
:1001D000491EFBD270470022F6E710B513460A46C7
:1001E00004461946FFF7F0FF204610BDF8B5024659
:1001F0004A40D40F42004B0052085B089A4202D298
:100200000246084611464A0023D0C30D4A00DDB21B
:10021000120EAD1A202D35DA49020126490AF605DB
:100220008A19002C00D0524220214F1B1146B940A0
:100230002A411018C20D9A4221D0002C17D0012D4E
:1002400008DCDA05801AD20F8019D207DBB200F081
:100250009DFAF8BDDA05801A012340001B06C0187C
:1002600080185A428018CA0F1043490007E0490815
:10027000C2071143DA05801A80194008801800F07F
:100280007DFAF8BD61000122511A001BF7E7012237
:10029000D2075140AAE70122D2075040A6E700004A
:1002A000F0B507460846584087B0C00F0490480094
:1002B0000E46590040084908BC1A884105D2384604
:1002C00031461E4617460B4602465800400810436A
:1002D0004CD0300D039040055900400D490D05905C
:1002E000401A0290402872DA18030121000B090518
:1002F0000843019004980092002805D001995242C9
:100300000020884100920190029840210A1A019928
:10031000009800F0FFF905460C466B4607CB00F04D
:100320001AFAC0197141039A0E0D0023D7175640CF
:100330001A467A40164344D0049A002A2DD0029AD5
:10034000012A039A15DC1205C01A914101263605CF
:10035000001C7141D20F059ED207009301920296B4
:100360002A46234600F058FA07B0F0BD3846314619
:10037000FAE71605224A0F46B218C01AB741012102
:100380000905001C4F4100187F411146181879419A
:10039000E20F10436D19644113E0E2076D08154345
:1003A0006408C2071443039A01261205C01A91413A
:1003B0003605001C7141CE07400830434908C0187B
:1003C00051412A46234600F01AFACDE7FFE7049888
:1003D00001224000C117121A00238B4104983146B4
:1003E000C417381AA141EEE730B40124E407634092
:1003F00030BC55E730B40124E407614030BC4FE71E
:100400000000E0FFF0B51FB488B00B9909980024F4
:1004100048400999C00F490049080991C0070B9944
:100420000090490049080B9109990898A64608438D
:100430001CD00B990A98084318D009980124400051
:10044000420D4800410D099824050003000B20438C
:1004500009900B980003000B20430B9050181C4987
:100460004018002201901446104605E00020014685
:100470000DB0F0BD032801DA034600E003239C46DB
:10048000C11A0AAE0AE05F0008ADED5B4F00F75BF2
:100490007D430027AA187C41491C5B1E6145F2DDA3
:1004A000410004AB5A522104120C0A43240C401C94
:1004B0000828DFDB019802900099704601910090B6
:1004C000059B049A0799069800F0A6F9D0E700006A
:1004D0000DFCFFFFF0B50C465C4085B0E40FE4076F
:1004E00003944C00002664085900944649080246CB
:1004F0000296224321D062460A431ED06200570D65
:100500004A000E032303550D012402462C492405FD
:10051000781B1B0B360B4018234326436146009083
:100520001C46501AB44103D30098401C009002E0CE
:10053000921800985B41002803DA0020014605B0BC
:10054000F0BD0020012109050746864611E06446FA
:100550001D46141BB54106D36546521BB341744674
:1005600007430C43A646CD07400849082843921884
:100570005B4105460D43EAD11046184313D060464F
:10058000194650407140084306D06046101AB341E6
:1005900006D20122002306E000220123DB0702E04D
:1005A0000122D2435310009874460105381C614162
:1005B000029C039D0019694100F021F9BFE700008A
:1005C000FD03000010B500229623114600F0DEF86E
:1005D00010BD00000EB5C217C10F5040CA07401829
:1005E0000021054B0293019200910A460B4600F050
:1005F00013F903B000BD0000330400000EB5054937
:100600000291002100910A460B46019100F004F985
:1006100003B000BD3304000070B5CD0F4A000903DC
:100620000123090B1B0519430B4BED070024520D49
:100630009A4201DA002070BD074B34339A4203DC42
:100640009A1A00F077F802E00449511888402C43C8
:10065000F1D0404270BD0000FF030000CDFBFFFF62
:100660004A0009030123090B1B051943094B10B567
:10067000520D9A4201DA002010BD064B34339A42E3
:1006800003DC9A1A00F056F810BD0349511888404F
:1006900010BD0000FF030000CDFBFFFFC20FD2071B
:1006A000400040080BD0C10D0723DB01C9184002F0
:1006B0000905400A1143C208400711437047002052
:1006C0000146704710B5002904DB0124E4074042CD
:1006D0008C412146002B04DB1C460123DB075242E0
:1006E000A3418B4200D1824210BD000010B5002909
:1006F00004DB0124E40740428C412146002B04DB4B
:100700001C460123DB075242A341994200D190428B
:1007100010BD000010B5202A04DB0146203A9140AC
:10072000002010BD914020239C1A0346E34019434A
:10073000904010BD10B5202A04DB0846203AD04076
:10074000002110BD0B46D340D0402024A21A914076
:100750000843194610BD10B5202A06DBCB17084602
:10076000203A1041C1170B4306E00B461341D0401D
:100770002024A21A91400843194610BD002904DA2A
:10078000401C490001D140084000704770B400246B
:10079000050C05D11024000402D1002921D0112418
:1007A000050E01D100020834050F01D10001241DFE
:1007B000850F01D18000A41C002801DB4000641CCF
:1007C000002908D020252E1B0D46F540A14000D061
:1007D00001212943084301061B1B000ADB1D02D52A
:1007E000002070BC7047DB05181880180029F8DA63
:1007F000401C4900F5D170BC40084000704710B55E
:10080000002B08DA0024401C614192185B411A4316
:1008100001D14008400010BDF0B51FB482B00546BC
:100820000C0003D008460DF093FE02E00DF090FEA0
:1008300020300246009021462846FFF76BFF049BBC
:10084000059A04460F4618431143084314D018462E
:1008500010431BD0009840210A1A18460599FFF74B
:1008600069FF05460E46009A05990498FFF752FF66
:10087000084305D0012004E02046394607B0F0BD0A
:100880000020C11705430E432C43374300990E98AF
:100890006305401A7905E40A00220C43FD0A0A3078
:1008A00002D500200146E9E70105101969410C9CB9
:1008B0000D9D00196941FFF7A2FFDFE7F8B5054676
:1008C000480040080C46284304D06000184A400DF8
:1008D000904201DD2846F8BD15493539884210DCC3
:1008E00088420BDB290D200308432903014305D06F
:1008F000E00F1049C00741180020F8BD0020014654
:10090000F8BD161A4020821B28462146FFF702FF39
:1009100007460091284621463246FFF70BFF3A462C
:10092000009BFFF76CFF3246FFF7F4FEF8BD0000B6
:10093000330400000000F03F064C0125064E05E0A0
:10094000E36807CC2B430C3C98471034B442F7D3F0
:10095000FFF7BAFBEC0001080C01010870B58C1818
:100960000578401C6B075B0F01D10378401C2A11EE
:1009700006D10278401C03E006780E70401C491C2A
:100980005B1EF9D12B0705D40023521E0DD40B702A
:10099000491CFAE70378401CCB1A921C03E01D782F
:1009A0000D70491C5B1C521EF9D5A142D8D3002002
:1009B00070BD30B589B005460C461022002105A84F
:1009C0000EF03CFD224605A905A80EF04FF868463A
:1009D000007D8021084000281CD000BF00200AE0D4
:1009E00005A9095C490005AB421C9A5CD211114370
:1009F00005AA1154401C0F28F2DB08A9C978490642
:100A00000A0E08A9CA7000BFC8788721484008A903
:100A1000C87016E000BF00200AE005A9095C490083
:100A200005AB421C9A5CD211114305AA1154401C1B
:100A30000F28F2DB08A9C97849060A0E08A9CA706E
:100A400000BFFF201530005910280FD100BF002033
:100A500009E0E11DFA31095C05AA125C5140E21D72
:100A6000FA321154401C1028F3DB61E06846007D27
:100A70008021084000281CD000BF00200AE005A902
:100A8000095C490005AB421C9A5CD211114305AACE
:100A90001154401C0F28F2DB08A9C97849060A0E38
:100AA00008A9CA7000BFC8788721484008A9C87043
:100AB00016E000BF00200AE005A9095C490005AB6B
:100AC000421C9A5CD211114305AA1154401C0F28F4
:100AD000F2DB08A9C97849060A0E08A9CA7000BF46
:100AE0008021FF2015300259E01DFA30815406E0C4
:100AF0000021FF2015300259E01DFA308154FF20FB
:100B000015300059401CFF21153108511028EFD332
:100B100000BF002009E0E11DFA31095C05AA125C62
:100B20005140E21DFA321154401C1028F3DB00BF83
:100B300000BF00200AE02146F131095CE21DFA32D3
:100B4000125C51402246F1321154401C1028F2DB55
:100B500000BF10222146F13101A80EF055FC2246BB
:100B6000294601A80DF082FF1022002105A80EF0F1
:100B700065FC09B030BD10B50446102200212046A6
:100B8000F1300EF05BFC0021FF2015300151F02206
:100B900020460EF053FC10BD70B504460D462246AB
:100BA000102128460DF090FF70BDF0B585B00446C9
:100BB0000F461546FF201530005900283ED0FF2073
:100BC000153000591021081AA84204D2FF20153010
:100BD0000059081A00E028460646B2B2FF21153136
:100BE0000959E31DFA33C81839460EF00DFCFF20F1
:100BF000153000598119FF20153001510059102876
:100C000001D3B54201D105B0F0BD00BF00200AE01C
:100C10002146F131095CE21DFA32125C5140224654
:100C2000F1321154401C1028F2DB00BF224621464D
:100C3000F13108460DF01AFFBF19AD1B21E000BFCE
:100C4000002008E02146F131095C3A5C514022461F
:100C5000F1321154401C1028F4DB00BF1022214651
:100C6000F13168460EF0D0FB2246694668460DF029
:100C7000FDFE102269462046F1300EF0C5FB10370C
:100C8000103D102DDBD8AAB23946E01DFA300EF027
:100C9000BBFBFF201530055100BFB4E71CB50F4862
:100CA0000079002814D10120694608710C48806839
:100CB00000900A49443149680878694608F0ACFE5A
:100CC000002106483C38017500200449087100BF26
:100CD00002483C38807C014948711CBD001200204C
:100CE0002C1400201CB51A48817C407C81422EDAED
:100CF0001748807C401C16498874887CC10F0918ED
:100D000049104900411A012921D122216846017167
:100D10000F4880304068FF301930017D684681718E
:100D20000B4880304068F830417868464171084986
:100D300080314968087801A908F060FE00900098A9
:100D400041B2034880304068F830417000BF1CBD9C
:100D5000C411002000BFEFF31081016072B670472C
:100D6000016881F3108800BF7047000010B5034888
:100D70000CF09CF809F050FD10BD0000D41F0020BD
:100D80000020704704480069034949694840024906
:100D9000496A4840704700004000F81F1749096938
:100DA000164A526A8918090EC17114490969134A11
:100DB000526A89180902090E81711049098A0F4A7D
:100DC000928C89180904090E41710C49097C0B4A5F
:100DD000928C8918017109494969090EC170074946
:100DE00049690902090E81700449898A0904090EBA
:100DF00041700249097D0170704700004000F81FF2
:100E00000EB54648007800286AD101F0E1F80120CB
:100E100000210B460246009101901421404800F049
:100E200081FD012000210B46024600910190132113
:100E30003C4800F077FD012000210B46024600915E
:100E400001900321384800F06DFD012000210B4680
:100E50000246009101901521344800F063FD0CF02A
:100E60008FFB01203249087082023249324800F07B
:100E7000B0FB0122920231492F480C3000F0A9FB4F
:100E80001723162201212C482C380DF079F9002067
:100E9000009001900346E12252020221029026486E
:100EA0002C380DF05BF909F047F800211C4800F0E0
:100EB000C0FE00211B4800F0BCFE00211A4800F0D3
:100EC000B8FE0021194800F0B4FE00F042F800F02E
:100ED000D1FB012806D10121084605F0EBFC01E019
:100EE0000CF0AAFB0020C043052106230722009135
:100EF0000190002112480CF0E1F809F0D7FC0748F6
:100F00000078002808D101200449087000F0B2FBE5
:100F1000012801D100F0FCF80EBD000020010020E6
:100F2000D4020020E8020020FC0200201003002070
:100F300021010020840300205003002084070020AA
:100F4000D41F0020704710B572B605F04DFC62B694
:100F500010BD10B500F076FE00F088FE00F07CFEBB
:100F600010BDFFB587B004461F460020069010252F
:100F70006557112020560590A068386060790128D7
:100F800052D1022168460174A17C8174E07C04A9DD
:100F900008F034FD0390039846B2B54201DD2846BF
:100FA00000E030460546B54203D100203860069087
:100FB0003AE0A189A068884202D30120069001E0AE
:100FC00000200690A089E1894018A16888422BD8AA
:100FD000082069460874E07C04A908F00FFD03901E
:100FE000039840B20590E189A068FFF781F80129D4
:100FF0001AD12221684601744574A17C8174E07C79
:1010000004A908F0FBFC0390039845B2B5420BD14C
:10101000002006902079012806D169460872E07CFC
:1010200001A908F0F9FC00BF089805700999059816
:10103000087006980BB0F0BD30B589B0044633484F
:101040004068FF30C130007E002802D16946087533
:1010500002E00120694608752C484068FF302130C5
:10106000417F68468175C47503A80CF036FA27489D
:101070004068FF30CD304068009024484068054605
:10108000FF35CD3529780B46697809020B43A978DD
:1010900009040B43E8780006034301A8049A039966
:1010A0000CF046FA0299019807910690174880388B
:1010B00080690890002168464175144840784007CF
:1010C000C00F002807D0002003F016FB002802D034
:1010D0000120694648750D494968087805A908F056
:1010E000BDF90A488038806908494968FF31C13133
:1010F00049884843054980398969411A034840684D
:10110000FF308130816409B030BD000044120020FE
:1011100010B50B480078002810D10A490A480CF095
:1011200029FB7D21C90008480CF0D1FB06480CF0D2
:10113000E3FB00BF024800780028FBD010BD000090
:1011400022010020E57300086C03002010B504465E
:101150000748806C002809D00548806C806800280A
:1011600004D00348806C81682046884710BD000089
:10117000C410002038B505460C4600200090694692
:10118000284600F059FB002801D0002038BD009807
:10119000844203D80098401C002801D10120F5E7C3
:1011A0000020F3E70B48807C0A49497C884201DB38
:1011B000012070470748803040788007C00F002822
:1011C00005D004483C300079012800D1F1E7002027
:1011D000EFE70000C41100201148017C8030406816
:1011E000FF3019300078814201DB012070470C4844
:1011F000803040788007C00F00280FD0084880302A
:101200004068E030007C002801D10120EEE704486E
:101210001C30407C002801D10120E7E70020E5E7F1
:10122000C4110020FFB585B004460E460E9F002E67
:1012300001D0002F02D1022009B0F0BD1748FFF7FE
:101240009AFC6946089800F0DDFA0546002D22D187
:101250000099491C1148FFF79FFC002C04D0102274
:1012600021460E48FFF7A1FC31460C48079AFFF7CC
:101270009CFC0A4901A8FFF79CFB6946C879000657
:10128000897909040843694649790902084369468E
:101290000979084338602846CEE70000F0160020A0
:1012A000FFB587B005460C461646139F002D01D0AA
:1012B000002F02D10A200BB0F0BDFF200130844284
:1012C00001DD0E20F7E703AA129911986B4607C3B8
:1012D00031462046109B0A9A06F07EFA3346224693
:1012E000294603A800970BF019F9002801D00F2018
:1012F000E1E70020DFE730B50246002300200AE0E6
:1013000001248440144001258540AC4201D15C1C7D
:10131000E3B2441CE0B28842F2DB184630BDFFB5B0
:1013200083B00746164600200290019000250090E9
:1013300049E000243EE0009841000498405A012111
:10134000A1400840002832D028190C2148433058C9
:10135000002800D12CE028190C23584380190823B9
:10136000C3561A1128190C2358438019007A000714
:10137000011778B208F012FB002800D118E02819F4
:101380000C2148438019407A010106980818C0686A
:10139000002804D00198401CC0B2019008E0281930
:1013A000C2B20298411CC9B202910C990A5400BF02
:1013B000601CC4B2102CBEDB28461030C5B20098A9
:1013C000401CC0B20090602DB3DB0D9901980870ED
:1013D000029807B0F0BD10B50446204600F001F8B1
:1013E00010BD10B50446204600F0A4FC10BD00005E
:1013F000FFB585B0044615460698002804D0002D98
:1014000002D00898002802D10A2009B0F0BD0020BF
:101410000190029003900490052C06D0062C05D074
:10142000072C04D0082C0AD105E000BF00BF012022
:101430006946087105E002206946087101E00B2049
:10144000E3E700BF032201A8013006990DF0DCFF9D
:101450000322294602A80DF0D7FF022202A803307A
:1014600008990DF0D1FF0D4840682346022201A9DA
:10147000064600903778384677783F023843B77889
:101480003F043843F678360630430BF05AF800280C
:1014900001D00F20B9E70020B7E700009C1500201D
:1014A0000246002A01D0002901D103207047107B99
:1014B0000007000F002806DD2020805C002802DDE8
:1014C0000020087020E02820805C002802D1012044
:1014D000087019E0107B0007000F002806D12020BB
:1014E000805C002802D1022008700DE0107B00070C
:1014F000000F002806D12020805C002802DD032098
:10150000087001E01720D1E70020CFE7704770474F
:1015100010B5012000F03CFC022000F039FC10BDA9
:1015200010B5042000F034FC082000F031FC10BDA0
:1015300010B5102000F02CFC202000F029FC4020E9
:1015400000F026FC802000F023FCFF20013000F09A
:101550001FFC0120400200F01BFC0120800200F073
:1015600017FC0120C00200F013FC0120000300F072
:101570000FFC0120400300F00BFC0120800300F071
:1015800007FC0120C00300F003FC10BD10B50520CE
:10159000FFF7DCFD10BD10B50420FFF7D7FD10BD2F
:1015A00010B50620FFF7D2FD10BD10B50220FFF7E1
:1015B000CDFD10BD10B50020FFF7C8FD10BD10B562
:1015C0000120FFF7C3FD10BD10B50320FFF7BEFDDE
:1015D00010BD00230380438041600281704770B5D5
:1015E00004460D462189681CFEF798FD88B270BD3F
:1015F00070B5044621882046FFF7F1FF61680D5C55
:1016000021882046FFF7EBFF2080284670BD70B58B
:1016100004460D4661882046FFF7E1FF608061883F
:101620006068455470BD10B50446002C00D110BD53
:101630001022002120460DF001FF0120F7E70000F5
:1016400001468800094A1058094A8018002807D026
:101650008018002806D052008018002804D000BF4F
:10166000002070470120FCE70220FAE7B4FC0008E4
:10167000B817FEFF03480078002801D10120704709
:101680000020FCE72101002008B51948194908602D
:10169000FF20E13048600846143003F063F9154933
:1016A000086100200090144949680878694608F0EC
:1016B0009AF9104988600098C86008461C300AF002
:1016C0007BFF0C4988610846243002F0A1FE0949DD
:1016D000086208462C3002F03FFE06498862084640
:1016E000343002F08FFF03490863084608BD00004C
:1016F0004C1200202C14002044120020F8B505469E
:101700000E461746344608E02078A84201D120460C
:10171000F8BD204602F0D0FC0446BC42F4D10020C3
:10172000F6E7FFB581B005460E4617460B9C002F25
:1017300004D0002C02D00C98002802D10A2005B059
:10174000F0BD2B000CF033FF0515181B1E04210003
:101750006846807C012809D1002E01D0032E02D1D9
:101760000220207004E00120207001E0032020709E
:101770000DE0042020700AE00520207007E006201C
:10178000207004E00720207001E00520D7E700BFAB
:10179000FA8920780C9B0A9903F08CF8CFE70000B7
:1017A000024600210FE0C800094B1858904208D8A3
:1017B000481CC0001858904203D9C800C0180079CE
:1017C0007047481CC1B21529EDD300BFFEE70000E9
:1017D00018FD000810B502460B4600210BE08800FA
:1017E000074C205C904204D188000019186000204A
:1017F00010BD481CC1B20529F1DB0C20F8E7000040
:101800004801002030B502460B4600210DE00801DA
:101810000818084C205C904205D1080108180019EE
:101820001860002030BD481CC1B21829EFDB03202E
:10183000F8E700000818002000B50246002901D191
:101840000A2000BD13000CF0B2FE083A05101B265A
:101850002B30353A1C484068006908601A484068D7
:101860001030194B5B6818632BE0174840684069DB
:101870000860154840681430134B5B68186320E01B
:1018800011484068806908600F48406818300E4B66
:101890005B68186315E00C484068C069086010E098
:1018A00009484068006A08600BE007484068406AE1
:1018B000086006E004484068806A086001E005208E
:1018C000BFE700BF0020BCE79C1500201CB5044604
:1018D0000E484068FF301930017D684681714471BF
:1018E0000D21017109484068FF302130C07F012877
:1018F00002D10E206946087104494968087801A997
:1019000008F07CF800900098C0B21CBD4412002082
:10191000024600238A4201D1CBB201E0501EC3B27D
:1019200058B27047FFB583B004460D4616460C9F6B
:101930000D9800970190324629462046069B00F0FC
:1019400003F807B0F0BD0000F0B587B004460E46BE
:1019500015461F46702E71DA2670701C002801D1C2
:1019600007B0F0BD20780107090F01208840608092
:1019700000202056F0210840002810D10520000743
:10198000606000BF4048C06A012108433E49C86208
:101990000846C06AC007C00F019000BF42E00020A7
:1019A0002056F021084010280FD13848606000BF51
:1019B0003548C06A022108433349C8620846C06AF4
:1019C00002210840019000BF2CE000202056F021A9
:1019D000084020280FD12E48606000BF2A48C06A06
:1019E000042108432849C8620846C06A0421084007
:1019F000019000BF16E000202056F021084030285A
:101A00000FD12448606000BF1F48C06A0821084306
:101A10001D49C8620846C06A08210840019000BFFD
:101A200000E000BF608802900C98A0720490022031
:101A30000590002D03D10020039018E022E0032D33
:101A400002D10320039012E0022D09D1012F02D10F
:101A50001220039001E0022003900D98069006E00A
:101A6000012F02D11120039001E001200390012DEC
:101A700003D120460D9900F0B9F802A9606800F082
:101A800097F900BF00BF6BE7001002400004005050
:101A900000080050000C0050F0B587B004460D4619
:101AA00016461F460020205670286EDA0020069049
:101AB00005200590002F01D107B0F0BD2761608897
:101AC0000090012D02D14548019006E0022D02D17F
:101AD0004348019001E043480190A07A029002201F
:101AE00003906946606800F063F933000CF05FFD15
:101AF000050405080B0F0E0000BF0320069009E047
:101B00000220069006E00120069003E000BF0020BE
:101B1000069000BF00BF6188FF220132881A9142FF
:101B200040D012DC102939D008DC01292ED002293E
:101B30002DD004292ED008293ED12CE020292ED0EA
:101B400040292DD0802937D12BE00F221202811A93
:101B500090422BD00DDCFF380138002823D0FF380D
:101B6000FF38023800281FD001218902401A23D1F2
:101B70001BE001200003081A19D001214903401A73
:101B800016D04900401A17D113E025E000BF052008
:101B9000059012E000BF062005900EE000BF00BFD8
:101BA00000BF00BF00BF00BF00BF00BF00BF00BF3D
:101BB00000BF0720059000E000BF00BF20780007AD
:101BC000800E09490C5000220699059800F046FA4B
:101BD000059800F023FA00BF00BF6DE70000111068
:101BE0000000211000003110840B002070B5044665
:101BF0000D460020205670280DDA002C00D100BFC1
:101C000000202056401C002800D170BDEAB2618837
:101C1000606800F0C9F900BFF7E7F8B504460D4663
:101C200016461F463B46324629462046FFF734FFFC
:101C3000F8BD70B504460D4629462046FFF7D6FF8D
:101C400070BD000003484068012108430149486015
:101C500070470000005801400348406804210843D1
:101C6000014948607047000000580140034840683F
:101C700002210843014948607047000000580140B4
:101C800070B5044600252520005D022803D00420FD
:101C9000E063012549E0206800680E21884321683F
:101CA00008602068006840084000216808602049FA
:101CB0002068884201D1012026E01D4914312068A6
:101CC000884201D110201FE019492831206888423C
:101CD00001D1801518E016493C312068884201D1B5
:101CE000801411E0124950312068884202D101204D
:101CF000000409E00E4964312068884202D10120C5
:101D0000000501E001200006094908394860012169
:101D10002520015500BF00212420015500BFA06BE4
:101D2000002802D02046A16B8847284670BD0000DD
:101D30000800024031B5002400F03CF9044600BF21
:101D400000F038F9001B00998842F9D338BD000033
:101D500070B505460024002D05DD02E06D10601C05
:101D6000C4B2012DFAD1A0000849085800280CD0AF
:101D7000A00008580069002807D0A2000B469A5816
:101D8000D068A2009A581169884770BD840B002062
:101D900010B50446054840692040002804D0034897
:101DA00044612046FFF7D4FF10BD0000000401404D
:101DB00070B50346002200240020DFE00126964093
:101DC0000D6835402C46002C77D04D68022D02D08E
:101DD0004D68122D15D1D508AE001D462035A859E5
:101DE0005507EE0E0F25B5400646AE433046560762
:101DF000F60E0D69B5402843D508AD001E462036C5
:101E000070514D68012D08D04D68022D05D04D68E8
:101E1000112D02D04D68122D18D198685600032557
:101E2000B5400646AE4330465600CD68B54028431F
:101E300098605868012595400646AE433046102606
:101E40004D6835402D099540284358601868560064
:101E50000325B5400646AE4330460D79AD07AD0FBC
:101E60005600B54028431860D86856000325B54091
:101E70000646AE43304656008D68B5402843D860CC
:101E8000012636074D683540B54276D13E4D6D6B23
:101E9000012635433C4E75633C4D9608B600A85963
:101EA00095072E0F0F25B5400646AE433046052553
:101EB0002D07AB4202D100251AE05EE0344DAB4263
:101EC00001D1012514E0334DAB4201D102250FE0D1
:101ED000314DAB4201D103250AE0304DAB4201D177
:101EE000042505E02E4DAB4201D1052500E0062575
:101EF0009607360FB5402843244D9608B600A851E2
:101F0000284D28680546A5432846012636044D6815
:101F10003540B54202D1054625432846214D28606B
:101F200068680546A5432846012676044D68354075
:101F3000B54202D10546254328461A4D6860A86877
:101F40000546A5432846012636054D683540B5426D
:101F500002D1054625432846124DA860E86805468B
:101F6000A5432846012676054D683540B54202D185
:101F70000546254328460B4DE860521C0D68D540A8
:101F8000002D00D01AE770BD00100240080001408B
:101F90000004005000080050000C005000100050D9
:101FA000001C005000040140002A01D0816100E0C3
:101FB00081627047014800687047000038010020C6
:101FC00002480068401C0149086070473801002041
:101FD00010B5064800680221084304490860032040
:101FE00000F006F800F018F8002010BD00200240B4
:101FF00070B504467D21C90006480068FEF778F8F0
:10200000054601F0ABFD00222146501E00F026F8E7
:10201000002070BD340100207047000000BFC206E0
:10202000D20E01219140024A116000BF70470000AA
:1020300000E100E010B501460846074A1268C406F0
:10204000E40E0123A3401A40002A01D0012200E03F
:102050000022104610BD000000E200E070B504460A
:102060000D4616462946204605F03EF970BD000093
:10207000034800680121890208430149086070474C
:1020800000700040034800680121490208430149EB
:1020900008607047007000400348006810218843C2
:1020A00001490860704700000070004010B502460A
:1020B00000200B4B18688008800003461343184625
:1020C000074B1860074B1B690424A343054C23618D
:1020D000012901D130BF02E040BF20BF20BF10BDA9
:1020E0000070004000ED00E010B5024600200E4BED
:1020F0001868800880000346134318460A4B18608E
:102100000A4B1B6904242343084C2361012901D194
:1021100030BF02E040BF20BF20BF044B1B69042436
:10212000A343024C236110BD0070004000ED00E0AD
:10213000F0B585B0054600260020039002900024EB
:10214000002701900090102D7ED008DC012D7CD05E
:10215000022D7BD0042D7AD0082D79D135E1202DA8
:1021600006D0402D4CD0E81FF9380028F5D160E1A9
:10217000C548066900690321090408400446012096
:102180000004844206D1C0113040002802D0601003
:10219000029034E001204004844206D10220304005
:1021A000002802D0B948029029E0032000048442AC
:1021B00023D1B5484038006801214904084000286F
:1021C0001BD0B1484038006821010840039001212C
:1021D00009050398401A09D0401A04D0401A08D1C2
:1021E000AB48029008E0AB48029005E0AA48029094
:1021F00002E0AA48029000BF01E0002002903EE108
:10220000A148C0680121890608400446002C41D13C
:102210009D48403800684910084000283AD09A4844
:102220004038C0680F218904084007469648403866
:10223000C0680321890508400190B80C98490F5CDB
:102240000198800D401C04E0E4E034E05EE089E0A9
:1022500014E101908C484038C0680121090408400D
:1022600000280CD188484038006810210840002818
:1022700002D08A48009004E08A48009001E08A4831
:10228000009000987843009001990098FDF730FF86
:1022900002900FE001208006844209D17A4840383C
:1022A000806802210840002802D08048029001E0A6
:1022B00000200290E3E07448C0688407A40F002C5B
:1022C00003D100F041FB02901FE0022C09D16E48BF
:1022D0004038006804210840002802D0714802906C
:1022E00013E0012C03D100F041FB02900DE0032C20
:1022F00009D165480069012149020840002802D03F
:102300008801029001E000200290B8E05E48C068B9
:102310000C2108400446002C03D100F003FB02907E
:102320001FE0082C09D158484038006804210840B3
:10233000002802D05B48029013E0042C03D100F087
:1023400015FB02900DE00C2C09D14F4800690121CA
:1023500049020840002802D08801029001E00020D4
:1023600002908CE04848C068032189020840044676
:10237000002C03D100F0D6FA029025E00120C00223
:10238000844209D1404840380068042108400028B0
:1023900002D04448029017E001208002844203D119
:1023A00000F0E4FA02900FE003208002844209D199
:1023B00035480069012149020840002802D08801FF
:1023C000029001E00020029059E02F48C0680321EC
:1023D000090308400446002C03D100F0A3FA029040
:1023E00017E001204003844209D1274840380068A3
:1023F00004210840002802D02A48029009E0012068
:102400000003844203D100F0B1FA029001E0002001
:10241000029034E01C484038806B01218905084057
:10242000884203D100F07EFA029001E00020029081
:1024300025E01548C0680321090408400446002C23
:1024400003D100F06FFA029017E0012040048442AB
:1024500009D10D484038006804210840002802D006
:102460001048029009E001200004844203D100F0EA
:102470007DFA029001E00020029000E000BF00BF62
:10248000029805B0F0BD00004010024088900000A6
:1024900020A1070040420F0080841E0000093D007B
:1024A00080F900080024F40000127A00006CDC02BD
:1024B000F8B5044600260025202120680840202881
:1024C0007CD120680840202800D100BF0027914817
:1024D000806B012109070840002805D18D48806BD9
:1024E00008438C49886301278B480068FF2101312C
:1024F0000840002816D188480068084386490860CB
:10250000FFF758FD064606E0FFF754FD801B6428E0
:1025100001D90320F8BD80480068FF21013108403F
:102520000028F1D07B4800680321090508400546D2
:1025300060680840A8420DD00911606808408842D0
:1025400008D174480068012149040840002801D0DE
:102550000120DFE76F48403000690321090408408B
:102560000546002D3CD060680840A84238D02021A4
:1025700020680840202833D1664840300069032194
:102580000904884305466348403000690121C904B5
:102590000843604940310861084600690121C904C7
:1025A00088435C4940310861084605618015284030
:1025B000002815D0FFF7FEFC064608E039E0FFF7DB
:1025C000F9FC801B5549884201D90320A2E75148F4
:1025D00040300069012149020840400A0028EED03D
:1025E00000BF00BF032109046068084088420AD187
:1025F00048480068090188430322120561681140B8
:1026000008434449086000BF424840300069032243
:1026100012046168114008433E494031086100BF1F
:10262000012F05D13B48806B890588433949886370
:1026300000BF2078C007C00F002809D035484030BF
:10264000C06880088000A168084332494031C860F2
:10265000022120680840022809D12E484030C06875
:102660000C218843E16808432A494031C8600421AD
:102670002068084004280AD126484030C068032159
:10268000890288432169084322494031C8600821F2
:102690002068084008280AD11E484030C06803213D
:1026A00009038843616908431A494031C860FF2122
:1026B00001312068084088420AD116484030C0687D
:1026C000032109048843A169084312494031C860C5
:1026D000402120680840402809D10E484030C06899
:1026E00009058843216A08430A494031C8608021AE
:1026F0002068084080280AD106484030C06803217D
:1027000089048843E169084302494031C8600020D8
:1027100000E7000000100240007000408813000035
:1027200070B504460D46002676480068C007C00F05
:10273000A8420ED2734800684008400028437149FF
:10274000086008460068C007C00FA84201D00120F9
:1027500070BD022120680840022807D16A48C0687D
:10276000F0218843A16808436749C8602078C00702
:10277000C00F00284CD06068022809D16248006868
:10278000012149040840400C002824D10120DFE742
:102790006068032809D15C480068012149060840A7
:1027A000400E002817D10120D2E76068012808D127
:1027B0005548006804210840800800280BD10120FA
:1027C000C6E751480068012149020840400A002834
:1027D00001D10120BCE74C48C068800880006168D6
:1027E00008434949C860FFF7E5FB064660680228D0
:1027F0000FD107E0FFF7DEFB801B4449884201D977
:102800000320A5E74048C0680C2108400828F1D102
:1028100034E0606803280FD107E0FFF7CBFB801B93
:102820003A49884201D9032092E73748C0680C2111
:1028300008400C28F1D121E0606801280FD107E0A1
:10284000FFF7B8FB801B3149884201D903207FE79D
:102850002D48C0680C2108400428F1D10EE007E0A3
:10286000FFF7A8FB801B2949884201D903206FE7A5
:102870002548C0680C2108400028F1D12148006893
:10288000C007C00FA8420ED91E480068400840008B
:1028900028431C49086008460068C007C00FA842CA
:1028A00001D0012054E7042120680840042808D101
:1028B0001548C068072109028843E16808431249A6
:1028C000C860082120680840082809D10E48C0685F
:1028D0000721C90288432169C90008430A49C86021
:1028E00000F044F80849C968F02211400909084A73
:1028F000515CC840074908600320FFF779FB0020BE
:1029000026E700000020024000100240881300006B
:1029100068F9000834010020014800687047000091
:102920003401002000B5FFF7F7FF0549C968072209
:1029300012021140090A034A515CC84000BD000060
:102940000010024078F9000800B5FFF7E5FF0549DF
:10295000C9680722D2021140C90A034A515CC84023
:1029600000BD00000010024078F90008FEB5002507
:102970000026002700240020019000902F48C56801
:102980000C202840002847D0042804D008280ED066
:102990000C2840D10EE0294800681021084000288A
:1029A00002D02748009001E02648009042E02648E7
:1029B00000903FE00F2080042840800C23490E5CEB
:1029C000032080052840800D471C1C48C068012159
:1029D00009040840002807D01B49714308463946BE
:1029E000FDF786FB044614E01448006810210840F7
:1029F000002807D01249714308463946FDF778FB95
:102A0000044606E00F49714308463946FDF770FB5E
:102A1000044600940EE000BF0848406807214903BF
:102A20000840400B01900198401C01218140C803DF
:102A3000009000BF00BF0098FEBD000000100240E3
:102A400000093D000024F40000127A0080F900081B
:102A5000F8B5044600252078C007C00F00287FD0B5
:102A6000FE48C0680C21084008280BD0FB48C0680D
:102A700008400C2813D1F948C06801210904084016
:102A800088420CD1F5480068012149040840400CF7
:102A9000002865D06068002862D10120F8BD00BF21
:102AA000012109046068884205D1EC4800680843A8
:102AB000EA49086027E005210904606888420ED1D0
:102AC000E6480068012189040843E4490860084693
:102AD0000068012109040843E049086013E0DF4869
:102AE0000068012109048843DC4908600846006841
:102AF000012109040840009000BFD84800688900FF
:102B00008843D649086000BF6068002814D0FFF7EA
:102B100051FA054607E0FFF74DFA401BD0498842BD
:102B200001D90320BAE7CD480068012149040840D3
:102B3000400C0028EFD013E0FFF73CFA054607E011
:102B4000FFF738FA401BC649884201D90320A5E7A0
:102B5000C2480068012149040840400C0028EFD118
:102B6000022120680840022868D1BC48C0680C21B6
:102B7000084004280BD0B948C06808400C281DD173
:102B8000B648C068012109040840002816D1B3489E
:102B90000068042108408008002804D0E06801286B
:102BA00001D001207AE7AD4840681F21090288431F
:102BB000216909020843A94948603FE0E06800280C
:102BC00024D0A648006809218843E1680843A34946
:102BD0000860FFF7EFF9054606E0FFF7EBF9401B49
:102BE000022801D9032059E79C48006804210840C5
:102BF00080080028F1D0994840681F2109028843C5
:102C00002169090208439549486017E09348006824
:102C10004008400091490860FFF7CCF9054606E0FE
:102C2000FFF7C8F9401B022801D9032036E78B487B
:102C300000680421084080080028F1D11021206894
:102C40000840102860D18548C0680C210840002841
:102C50005BD182480068012149020840400A0028EF
:102C600004D0E069002801D1012017E77B48616AA0
:102C70004068072252031040814219D9606A05F06A
:102C8000BDFE002801D0012008E7744840680721F4
:102C900049038843616A08437049486008464068B0
:102CA0000002000A218C090608436C49486018E0BC
:102CB0006A484068072149038843616A08436749B5
:102CC0004860084640680002000A218C0906084353
:102CD00062494860606A05F091FE002801D0012039
:102CE000DCE6606A400B401C01218140C8035B495F
:102CF000C968F022114009095A4A515CC8405A4932
:102D000008600320FFF774F949E0E06900282CD03F
:102D100052480068FF210131084350490860FFF71D
:102D200049F9054606E0FFF745F9401B022801D99D
:102D30000320B3E649480068012149020840400ADF
:102D40000028F0D045484068072149038843616A5C
:102D5000084342494860084640680002000A218C46
:102D6000090608433D49486019E03C480068FF21D6
:102D70000131884339490860FFF71CF9054606E030
:102D8000FFF718F9401B022801D9032086E63348D3
:102D90000068012149020840400A0028F0D10821BA
:102DA00020680840082839D1606900281BD02B48CA
:102DB0004030006901210843284940310861FFF78C
:102DC000F9F8054606E0FFF7F5F8401B022801D99F
:102DD000032063E621484030006902210840400892
:102DE0000028F0D01AE01D4840300069400840003B
:102DF0001A4940310861FFF7DDF8054606E0FFF7A4
:102E0000D9F8401B022801D9032047E61348403077
:102E100000690221084040080028F0D10421206800
:102E2000084004287BD100260C48806B89060840A6
:102E3000002805D10948806B0843084988630126AA
:102E40000A480068FF2101310840002822D10748C4
:102E500000680843054908600AE0000000100240CD
:102E60008813000068F90008340100200070004059
:102E7000FFF7A0F8054606E0FFF79CF8401B642822
:102E800001D903200AE6A6480068FF210131084065
:102E90000028F1D000BFFF210131A068884205D190
:102EA000A048006908439F49086130E0A0680028F5
:102EB0000DD19C480069FF2101318843994908617F
:102EC0000846006909158843964908611FE00521F5
:102ED0000902A06888420DD1924800690121890247
:102EE00008439049086108460069891508438D49DF
:102EF00008610CE08B480069FF2101318843894952
:102F0000086108460069091588438649086100BFC1
:102F1000A068002815D0FFF74DF8054608E02FE01F
:102F2000FFF748F8401B8049884201D90320B5E5E6
:102F30007C480069012149020840400A0028EFD07E
:102F400013E0FFF737F8054607E0FFF733F8401BBB
:102F50007549884201D90320A0E572480069012122
:102F600049020840400A0028EFD1012E07D16D48E0
:102F70004038806B310788436A494039886300BF15
:102F8000202120680840202852D1A06900282BD099
:102F900000BF6448403880680121084361494039D6
:102FA00088600846406B012108435E494039486308
:102FB0005E48006A0121490308435C49086200BF7A
:102FC000FEF7F8FF054606E0FEF7F4FF401B022877
:102FD00001D9032062E55348403880680221084047
:102FE00040080028F0D023E000BF4E4840388068F9
:102FF000400840004B49403988604C48006A012134
:10300000490388434949086200BFFEF7D3FF0546DC
:1030100006E0FEF7CFFF401B022801D903203DE563
:103020004048403880680221084040080028F0D11C
:10303000A06A002872D03B484038C0680C21084084
:103040000C2869D0A06A022848D136484038006868
:10305000012109068843334940390860FEF7AAFF79
:10306000054606E0FEF7A6FF401B022801D9032013
:1030700014E52C4840380068012149060840400EFC
:103080000028EFD1216BE06A0843616B08432549B2
:103090004039C968FD22120491430843214940394F
:1030A000C860084600680121090608431D494039E7
:1030B0000860FEF77FFF054606E0FEF77BFF401B3A
:1030C000022801D90320E9E41648403800680121AC
:1030D00049060840400E0028EFD01FE01148403854
:1030E00000680121090688430E4940390860FEF74F
:1030F00061FF054606E0FEF75DFF401B022801D98F
:103100000320CBE407484038006801214906084005
:10311000400E0028EFD101E00120BFE40020BDE413
:103120000070004040100240881300000000014081
:10313000024600231068034650338800C3181868FD
:10314000704710B500230468234650338C00E31801
:103150001A6010BD014600BF2020405C012801D14B
:103160000220704701222020425400BF0222212069
:10317000425400BFCA200A68506253200A68506255
:1031800000BF08688068202210430A68906000BF72
:10319000FF200A68506200BF01222120425400BF74
:1031A00000222020425400BF0020DAE710B5044678
:1031B0000AF016FB10BD70B504460D46002600BF90
:1031C0002020005D012801D1022070BD01212020B6
:1031D000015500BF02212120015500BFCA202168EE
:1031E000486253202168486200BFFF2001308542B9
:1031F0002CD120688068294688432168886020682F
:1032000080682901884321688860FEF7D3FE06465E
:1032100015E0FEF7CFFE801B7D21C90088420ED944
:1032200000BFFF202168486200BF03212120015513
:1032300000BF00212020015500BF0320C5E7206802
:10324000C068C007C00F0028E3D02EE02068806867
:103250000121490288432168886020688068012133
:103260004903884321688860FEF7A4FE064615E0FE
:10327000FEF7A0FE801B7D21C90088420ED900BF49
:10328000FF202168486200BF03212120015500BFB3
:1032900000212020015500BF032096E72068C06868
:1032A0000221084040080028E2D000BFFF2021682A
:1032B000486200BF01212120015500BF00212020CC
:1032C000015500BF002080E7FFB581B006460C46DF
:1032D0001746002500200090FF200130874227D1AB
:1032E00060623068C5693068406C4004400C0090F2
:1032F0003F2000042840000C20707F20000228405E
:10330000000A60706806400EA07090032840000C10
:10331000E070009860603F2000062840010E2020E9
:10332000015540062840E06122482840606129E0BC
:103330000120400260623068056A3068806C400499
:10334000400C00903F2000042840000C20707F209B
:1033500000022840000A60706806400EA07001203C
:1033600080052840000CE070009860603F20000657
:103370002840010E2020015540062840E0610D48FC
:10338000284060610498002811D1207805F082FB64
:103390002070607805F07EFB6070A07805F07AFB05
:1033A000A0702021085D05F075FB20210855002044
:1033B00005B0F0BD80808080F0B506460C4617460B
:1033C000002530684068124908400546FF20000487
:1033D0002840000CE0701F2000022840000A6070A6
:1033E000A806800EA070072040032840400B2070E4
:1033F000002F0BD1E07805F04DFBE070607805F010
:1034000049FB6070A07805F045FBA0700020F0BD7E
:103410003FFFFF00F0B505460C461746002628681A
:10342000806A6060286800694004400CA0602868D9
:1034300000681249084006463F2000043040000C56
:1034400020707F2000023040000A60707006400E3D
:10345000A070012080053040000CE070002F0BD1DF
:10346000207805F017FB2070607805F013FB607082
:10347000A07805F00FFBA0700020F0BD7F7F7F00DB
:1034800010B50446002C01D1012010BD2120005DA3
:10349000002805D1002120200155204600F054F8D5
:1034A00002212120015500BFCA2021684862532013
:1034B0002168486200BF204605F006FB002809D0BD
:1034C00000BFFF202168486200BF04212120015570
:1034D0000120DAE7206880681A490840216888607E
:1034E000216960680843A169084321688968084325
:1034F000216888602168E068086120680069218986
:1035000009040843216808612068C0688021884355
:103510002168C8602068C06C800880002168C86489
:103520006169E06908432168C96C08432168C8647F
:1035300000BFFF202168486200BF01212120015502
:103540000020A2E7BFFF8FFF70470000FEB50446D2
:103550000D461646002700200190009000BF202055
:10356000005D012801D10220FEBD0121202001556E
:1035700000BF022121200155002E2AD12068806839
:1035800040210840002800D002E00020E87000BF81
:10359000E869002800D100E000BF287805F087FA2C
:1035A0000304687805F083FA00020343A87805F065
:1035B0007EFA0343E878000403432021485D05F0C8
:1035C00076FA00060343E8690343686903430193FD
:1035D0002FE02068806840210840002804D0287827
:1035E00005F058FA019002E00020E87000BFE86999
:1035F000002805D12021485D05F04CFA019005E036
:103600002021485D05F046FA019000BF28780004AB
:10361000697809020843A9780843E978090408434E
:103620002021495D09060843E9690843696908439F
:103630000190A96968680843009000BFCA2021680A
:10364000486253202168486200BFFF210131686A47
:10365000884241D12068806888432168886020685A
:10366000C068802108404D4908432168C860FEF7C2
:10367000A1FC074615E0FEF79DFCC01B7D21C9009B
:1036800088420ED900BFFF202168486200BF032195
:103690002120015500BF00212020015500BF03203B
:1036A00062E72068C068C007C00F0028E3D0019817
:1036B0002168C86100982168486420688068FF21FB
:1036C000013108432168886020688068012109036E
:1036D00008432168886043E020688068012149022E
:1036E0008843216888602068C068802108402C4990
:1036F00008432168C860FEF75DFC074615E0FEF749
:1037000059FCC01B7D21C90088420ED900BFFF2093
:103710002168486200BF03212120015500BF00211C
:103720002020015500BF03201EE72068C068022149
:10373000084040080028E2D00198216808620098FB
:103740002168886420688068012149020843216853
:1037500088602068806801214903084321688860E7
:10376000104800680121490408430E4908600846D2
:1037700080680121490408430A49886000BFFF208E
:103780002168486200BF01212120015500BF0021AE
:103790002020015500BF0020E6E600007FFEFFFF6D
:1037A0007FFDFFFF00040140F8B504460D461646B4
:1037B000002700BF2020005D012801D10220F8BDB4
:1037C00001212020015500BF022121200155002E9A
:1037D00009D1687810210840102804D16878EF21B9
:1037E00008400A306870002E11D1E87805F05FF9C2
:1037F0000304687805F05BF900020343A87805F03C
:1038000056F903432878400303431F4612E06878C3
:1038100005F040F90746A87805F03CF90746E87836
:103820000004697809020843A97808432978490304
:103830000843074600BFCA20216848625320216818
:10384000486200BF204605F03FF900280ED000BFB7
:10385000FF202168486200BF04212120015500BFDC
:1038600000212020015500BF0120A8E71948384059
:10387000216848602068C068802188432168C8604A
:103880002068806820210840002813D1204600F0DD
:10389000CDF800280ED000BFFF202168486200BF8D
:1038A00004212120015500BF00212020015500BF27
:1038B000012084E700BFFF202168486200BF01218A
:1038C0002120015500BF00212020015500BF00200C
:1038D00075E700003FFFFF00F8B504460D461646A9
:1038E000002700BF2020005D012801D10220F8BD83
:1038F00001212020015500BF022121200155002E69
:103900001BD12068806840210840002800D002E0D8
:103910000020E87000BF287805F0C9F80304687833
:1039200005F0C5F800020343A87805F0C0F803438A
:10393000E878000403431F4618E0206880684021AF
:103940000840002804D0287805F0A4F8074602E0D3
:103950000020E87000BF2878000469780902084355
:10396000A9780843E97809040843074600BFCA203C
:103970002168486253202168486200BF204605F054
:10398000A3F800280ED000BFFF202168486200BFC6
:1039900004212120015500BF00212020015500BF36
:1039A0000120A4E72048384021680860206880682A
:1039B000012189048843216888602969E8680843EF
:1039C000216889680843216888602068C068802170
:1039D00088432168C860206880682021084000284A
:1039E00013D1204600F022F800280ED000BFFF209F
:1039F0002168486200BF04212120015500BF002139
:103A00002020015500BF012071E700BFFF20216881
:103A1000486200BF01212120015500BF0021202064
:103A2000015500BF002062E77F7F7F0070B504462C
:103A300000252068C068A02188432168C860FEF77F
:103A4000B9FA054608E0FEF7B5FA401B7D21C9002A
:103A5000884201D9032070BD2068C0682021084039
:103A60000028F0D00020F6E710B50446002C01D164
:103A7000012010BD0221512001552068006840211D
:103A8000884321680860204600F052F800206065F5
:103A900000215120015500BF5020015500BF0020DA
:103AA000E7E710B50446002C01D1012010BD5120DC
:103AB000005D002805D1002150200155204600F06E
:103AC00038F80221512001552068006840218843C0
:103AD00021680860A16860680843E16808432169BB
:103AE00008436169084301225202A1691140084359
:103AF000E1690843216A0843A16A08432168086014
:103B0000A069000C04210840616A084321684860EC
:103B10002168E06A08612068C069910088432168D3
:103B2000C861002060650121512001550020BDE7DA
:103B300070477047042806D10649096904221143D9
:103B4000044A116105E00349096904229143014ACD
:103B50001161704700E000E07047000070B5044656
:103B60002546681E0949884201D901200CE0681EDB
:103B7000074948610321081F03F0B6FB00200449F0
:103B8000886107200861002070BD0000FFFFFF0072
:103B900000E000E010B5FFF7DFFF10BD7047000048
:103BA00010B5044601220249024800F027F910BD71
:103BB00032010020540D0020F8B504462068C56984
:103BC000206806682807000F0090009800280BD195
:103BD00020202840002807D020203040002803D093
:103BE00020460AF000F8F8BD206887680098002891
:103BF0007ED0F807C00F002804D1FF2021303040CC
:103C00000028F5D0E807C00F00280BD0FF200130B6
:103C10003040002806D0012021680862E06E0121B2
:103C20000843E0660220284000280AD0F807C00FA9
:103C3000002806D0022021680862E06E04210843B3
:103C4000E0660420284000280AD0F807C00F0028AA
:103C500006D0042021680862E06E02210843E06675
:103C60000820284000280ED020203040002803D112
:103C7000F807C00F002806D0082021680862E06E0F
:103C800008210843E066E06E002841D0202028404B
:103C9000002806D020203040002802D0204609F01D
:103CA000A2FFE06E08210840002805D12068806846
:103CB00040210840002826D0204609F073FF2068E4
:103CC000806840210840002819D020688068884317
:103CD00021688860606E00280DD02648616E886378
:103CE000606EFDF7CDFF002812D0606E816B00E0A2
:103CF0000FE088470CE02046FFF752FF08E020461F
:103D0000FFF74EFF04E02046FFF74AFF0020E06681
:103D100069E7012000052840002811D00120800516
:103D2000384000280CD001200005216808622021BD
:103D3000692001556A2001552046FFF72FFF52E701
:103D400080202840002807D080203040002803D061
:103D500020460AF089F946E740202840002807D08D
:103D600040203040002803D0204609F02CFF3AE7DD
:103D700000BF38E78DDB000810B50446002C01D1E8
:103D8000012010BDA069002800D000E000BF69201C
:103D9000005D002805D1002168200155204600F073
:103DA0002CF8242169200155206800684008400053
:103DB00021680860606A002802D0204609F034FEBD
:103DC000204609F059FF012800D1DAE72068406851
:103DD0000921C902884321684860206880682A2137
:103DE00088432168886020680068012108432168B1
:103DF0000860204609F090FEC3E7704710B50346FF
:103E00006A20C05C20286AD1002901D0002A01D193
:103E1000012010BD012424039868A04208D118692C
:103E2000002805D1C807C00F002801D00120F0E705
:103E300000BF6820C05C012801D10220E9E701240D
:103E40006820C45400BF59655820C2525A20C2523B
:103E500000BF24039868A0420AD11869002803D142
:103E6000204C5C20C45220E0FF245C20C4521CE0A3
:103E7000986800280AD11869002803D1FF245C2023
:103E8000C45212E07F245C20C4520EE001242407B7
:103E90009868A04209D11869002803D17F245C20CA
:103EA000C45202E03F245C20C45200BF0020D86608
:103EB00022246A20C45400BF00246820C45400BFD8
:103EC00018688068012420431C68A0601868006896
:103ED000FF24213420431C682060002099E7022041
:103EE00097E70000FF01000010B504460C4800F001
:103EF000F8F8002804D10B4801780948FDF787FB42
:103F000007483838406C002804D005483838416CE0
:103F100001208847012203490348FFF76FFF10BDC6
:103F20005C03002032010020540D002010B5034630
:103F30006920C05C202835D1002901D0002A01D198
:103F4000012010BD012424039868A04208D11869FB
:103F5000002805D1C807C00F002801D00120F0E7D4
:103F600000BF6820C05C012801D10220E9E70124DC
:103F70006820C45400BFD9645020C2525220C2529B
:103F80000020D86621246920C45400BF0024682082
:103F9000C45400BF18680068802420431C68206057
:103FA0000020CEE70220CCE710B504460C4800F014
:103FB0008FF8002808D10A48FDF71AFB0949087054
:103FC00001220948FFF7B2FF05482C38406C002851
:103FD00004D003482C38416C0020884710BD0000F5
:103FE0005003002033010020540D002070B5054619
:103FF0000C4600262E484068E030007C022802D0A3
:104000002C49C86A804700F0AFF9002806D002208A
:1040100000F0C6F9002000F09CF901262448406811
:10402000E030007C012815D100F0A4F9002806D06A
:10403000002000F0B8F9002000F0A9F9012600F0F6
:1040400097F9002806D0002000F0ABF9002000F01E
:1040500099F90126002E27D11548007800280BD1A8
:1040600013488038007D012802D11148443845703A
:10407000284600F09DFB17E00D488038007D0128A0
:1040800002D10B4844384470204600F091FB0848A8
:104090004068E030007C022806D0054840782021A6
:1040A00088432030024948700AF0B4F970BD00001E
:1040B00044120020FCF800080449096910318142CB
:1040C00002D10249086900E0001D704788150020F0
:1040D000014608884A88904201D10120704700209B
:1040E000FCE710B5044661882046FDF778FA218880
:1040F000884201D1012010BD0020FCE7074840782C
:104100004007C00F002805D104484078C007C00F01
:10411000002801D0012070470020FCE74412002055
:1041200002461346002106E0585C002801D000201A
:104130007047481C81B21029F6D30120F8E70146E8
:10414000052904D0082903D00A2903D100BF00BFE4
:10415000012070470020FCE71FB500216846017070
:10416000017101F0ABFF04460AA00AF0E1F9A000DA
:10417000164A115816A00AF0DBF9002C06D119A036
:104180000AF0D6F905202049087002E004201E49F3
:1041900008701FBD0D0A232323232323203D3D3D0B
:1041A0003D3D204D4C4D452D526571756573742014
:1041B0002D204D4C4D455F4A4F494E203D3D3D3DE4
:1041C000202323232323230D0A000000780000204E
:1041D0005354415455532020202020203A20257349
:1041E0000D0A0000232323232323203D3D3D3D3D95
:1041F000204A4F494E494E47203D3D3D3D20232317
:10420000232323230D0A00006F00002030B504464D
:1042100020468C4201DD254600E00D46284630BD93
:104220000246002A02D1002900D1704710680028F8
:1042300000D111605068002801D050680160002052
:10424000086051600120F0E703460A46002B02D1C6
:10425000002A00D1704719688A4207D000E0096837
:10426000002904D008689042F9D100E000210846F6
:10427000F0E70146002900D170470020086048603F
:104280000120F9E770B505460C46002D02D1002C3F
:1042900000D170BD21462846FFF7D6FF06462868A4
:1042A000A04201D1206828606868A04200D16E60F9
:1042B000002E01D020683060002020600120E8E757
:1042C000F8B504460D4616461F46A078002806D1CC
:1042D0003B46324629462046FCF743FEF8BD002007
:1042E000FCE7000010B50B2000F006FA002813D000
:1042F0000A484078C007C00F00280DD10748407811
:104300004007C00F002807D00548006C02218843F1
:1043100003490864012010BD0020FCE7441200207E
:10432000C41000200848006C8021084080280AD171
:104330000548006C8843044908640846006C022163
:104340008843014908647047C410002001460020DA
:1043500070477047704770470146002008607047FB
:10436000704770470020704700207047002070475A
:10437000002070470020704701460020704701462A
:104380000220704770470246002070477047704710
:104390007047014601207047704702460020704771
:1043A000704770477047704770470146022070475A
:1043B000F8B506460F461546002F01D10120F8BD7D
:1043C00002F0B4FA0446002C01D10220F7E721469E
:1043D0000E48FFF725FF002801D10520EFE72671E1
:1043E000A560AAB23946601D0BF00EF83046FFF703
:1043F000A6FE207305488030816F681C09180348A9
:104400008030816702F0ACFF0020D8E774140020F0
:104410000146FC2008600148704700007414002029
:104420000146002901D1012070470248806F0860D1
:104430000020F9E7F414002010B50446FC22002106
:1044400004480AF0FBFF0348FFF713FF024804602B
:10445000002010BD741400204401002010B5044653
:10446000002C01D1012010BD21460D48FFF70AFFA5
:10447000002801D10320F6E709488030816FA06849
:10448000401C091A0648803081672046FDF7CBF8AA
:10449000002801D10520E6E702F062FF0020E2E7F4
:1044A0007414002070B50948046809E0207B0028D6
:1044B00005D125682046FFF7D1FF2C4600E024688F
:1044C000002CF3D102F04CFF002070BD74140020CA
:1044D00070B50948046809E025682079FFF72FFEC8
:1044E000002802D02046FFF7B9FF2C46002CF3D15C
:1044F00002F036FF002070BD7414002010B5044691
:10450000002C06D0FC22214603480AF07DFF002043
:1045100010BD0120FCE7000074140020F7B5074629
:104520001646002E02D00198002801D10120FEBDC0
:104530000F480468002515E0791BA068401C8142E3
:104540000ED322792846691CCDB2325421898AB211
:104550007019611D0AF058FF207A4019C5B200E0B9
:1045600002E02468002CE7D100BF0020DFE7000054
:10457000741400200246002A01D101207047084827
:1045800001680020107006E0087B012802D110703D
:104590000020F3E709680029F6D10020EEE70000CB
:1045A0007414002010B5044612480069007D0528E7
:1045B00001DB002010BD20780E4989680870607802
:1045C0000C4989684870E0780A498968C8700020F9
:1045D00008498968887007480069007D401C0549C2
:1045E0000969087503498868FFF766FD0149886015
:1045F0000120DFE78815002001480069007D704731
:104600008815002001461620086001487047000008
:104610007015002070B50546002409480069007D2A
:1046200000280ADD0648826841682846FDF766F8DA
:104630000446002C01D0607870BD0120FCE700002A
:1046400088150020F8B5044619480069077D002543
:1046500000262AE016484068007820701448406818
:1046600040786070124840688578012D05D1104867
:1046700000688168204688470EE00D484068017850
:10468000684601700A4840684178684641700848A9
:104690004068C1786846C17000F04AF8002D02D128
:1046A0006846FFF77FFF701CC6B2BE42D2DBF8BD82
:1046B0008815002070B504460D460D4804600D486D
:1046C0000B49086100200969087509480069084913
:1046D000486008460069886014220869FF210AF0D2
:1046E000ADFE01200249096948750148C56070BDE9
:1046F000881500207015002010B504460548826812
:1047000041682046FCF7FAFF002801D0012010BDC7
:104710000020FCE78815002004480069007D05287A
:1047200001DB012070470020FCE700008815002015
:1047300010B50A480069007D002800D110BD074867
:104740000069007D401E05490969087503494868EC
:10475000FFF7B2FC014948600120EFE7881500200F
:1047600010B50446002C06D01622214603480AF054
:104770004BFE012010BD0020FCE70000701500205A
:1047800070B505460E46002408480069007D0028E3
:104790000BDD0648826841683046FCF7AFFF0446EF
:1047A000002C02D065700120A07070BD881500201B
:1047B00070B505460C484468006945750A480069AB
:1047C000007D00280EDD00BF6570E078002801D173
:1047D0000120A0702046FFF76FFC04460248806865
:1047E000A042F1D170BD000088150020F0B585B061
:1047F0000446092C02D00B2005B0F0BD002000902B
:104800000190029003900C487F2322466946456838
:104810002F7838466F783F023843AF783F043843EB
:10482000EE783606304307F08CFE002801D00F20CA
:10483000E2E70020E0E700009C150020F0B585B01D
:104840000446002C04D11A4840688078002806D01D
:10485000012C07D1164840688078012802D10B202E
:1048600005B0F0BD00200090019002900390104828
:1048700040688078012802D12020694608700C48E1
:1048800009232246694645682F7838466F783F02EB
:104890003843AF783F043843EE783606304307F0AC
:1048A00050FE002801D00F20DAE70020D8E70000F2
:1048B0009C150020FFB583B00E4615461C4600200F
:1048C0000290002713200190002C02D10A2007B08B
:1048D000F0BD02A90398FCF7AFFF019001980028F2
:1048E00001D00198F3E70298401C002801D125600F
:1048F00016E0029880B22F1A002F03DD0298C0192B
:1049000020600DE0002F03D1029820600720DEE731
:104910000298000C0004012109044018401920608D
:1049200008484068807800280AD10022206802994F
:10493000411A92410020891B824101DB0820C6E711
:104940000020C4E79C1500200146002901D10A205F
:10495000704703484068C068401C08600020F7E7C3
:104960009C15002001463420086001487047000073
:10497000A8150020F7B5C6B01446002C02D0479801
:10498000002802D10A2049B0F0BD13250026469820
:10499000FF2802D1022044900C26207982190021A0
:1049A00001A80AF04BFD01AA93192279521E91B277
:1049B0002268501C449A07F071FD002801D00F2096
:1049C000E1E723795B1E9AB201AB99192368581C61
:1049D0000AF01AFD204601F0E6FC002801D0102064
:1049E000D1E7207CC009002806D00120624949682F
:1049F00088700320459005E000205F494968887071
:104A0000022045905C484068807800280BD12379CB
:104A10001B1F99B2626A2068459B07F04BFF002874
:104A20004DD00F20AFE700273A467F1C01A84699DA
:104A3000815401A9C819082247990AF0F1FC0837E6
:104A40004D484068027939467F1C01A842544A48C3
:104A50004068808801123A467F1C01A8815462791F
:104A600039467F1C425420798019401F81B2626A06
:104A700001A8459B07F01EFF002801D00F2082E708
:104A800000200090A0790090E0790002009908438E
:104A90000090207A0004009908430090364840684E
:104AA00081680098814207D233490098496888603C
:104AB00031498868804701E0032064E700BF012096
:104AC000FFF7BCFE0546002D01D028465BE7092014
:104AD000FFF78CFE0546002D01D0284653E72648F7
:104AE0004068031D22460932A11D0820FCF780FC06
:104AF0000546002D01D0284645E71F484068031DA4
:104B000022460932A11D0720FCF772FC0546002D44
:104B100001D0284637E718484068031D224609326D
:104B2000A11D0520FCF764FC0546002D01D0284698
:104B300029E711484068031D22460932A11D0620BD
:104B4000FCF756FC0546002D01D028461BE7002047
:104B5000094908804968C860411E0748406881616A
:104B6000054840680161044840684161024988681D
:104B70008047002007E700009C15002010B5044680
:104B8000114812494860002C02D00846846002E0B7
:104B90000F480E4988600D493422486800210AF008
:104BA0004DFC012009494968C87008494968887066
:104BB000064949684870002004494968087004F0B3
:104BC000D9FF002010BD0000A81500209C15002072
:104BD0000D1500087CB50446002C01D10A207CBDCF
:104BE00002250020019001A807F0D2FD1349019889
:104BF00049688880114988688047104840688088E3
:104C0000E082204601F095FD002801D01120E6E762
:104C10002046183000902B4613220020216807F010
:104C20007DFC002801D00F20D9E7204601F081FD4E
:104C3000002801D01120D2E70020D0E79C150020E9
:104C400010B50446002C06D03422214603480AF051
:104C5000DBFB002010BD0A20FCE70000A8150020A7
:104C6000F0B585B005461C4613260827002C02D156
:104C70000A2005B0F0BD25484068C068A84201D9A7
:104C80000620F6E72020005D002800D107271F48F6
:104C90004068C068A8420ED20020019500902822EA
:104CA000115D3A46A368606A02F030FD0646002EA8
:104CB00001D03046DDE715484068C5601349886873
:104CC0008047204601F09AFC002801D01120D0E74F
:104CD00020462C300022A168029500920191039099
:104CE0002279121F91B2002307222068FCF7D8FA1C
:104CF0000646002E01D03046BBE7204601F07EFC80
:104D0000002801D01120B4E70020B2E79C15002054
:104D100070B504460D462946204607F07FFD002861
:104D200001D00F2070BD012C01D0002C0DD12046E8
:104D3000FFF784FD002801D00F20F3E70920FFF7DB
:104D400055FD002801D00F20ECE70020EAE7000025
:104D500001B50348406800990160002008BD0000CB
:104D60009C1500200146002901D10A2070470948FE
:104D700040681C30C86107484068203048640548D6
:104D800040682430C8660348406828309422505058
:104D90000020EBE79C150020FFB589B00E461F46AA
:104DA000129C002C02D10A200DB0F0BD39460B98A0
:104DB000FCF7E0F9002801D10620F5E713250820CB
:104DC000089006200790204601F058FA002801D0EC
:104DD0001020E9E706A90998FCF7FCFC0546002D20
:104DE00001D02846E0E70698407808900698807839
:104DF0000790A068B04201D00220D5E7207B800652
:104E0000C00F05901A4840688078002800D10590AE
:104E10000121E06A6A46C2C203902079001F81B274
:104E200020680490059B079A09F019FB0546002DA0
:104E300001D02846B8E72020005D002801D10720D6
:104E400008900120019700902820015D606A334698
:104E50000490089A02F05AFC0546002D01D028461D
:104E6000A2E739460B9809F0A5FA00209CE700005C
:104E70009C150020014988707047000044120020F2
:104E800000B587B01E4840780007C00F00280BD03F
:104E90001B48407808218843194948701948406CDC
:104EA000C16817481C38884715484078C006C00FAD
:104EB000002810D006216846017000214170114879
:104EC000406CC168684688470D4840781021884387
:104ED0000B49487000BF0A4840788007C00F00287F
:104EE0000BD007484078022188430549487005489F
:104EF000406C416802486438884707B000BD000034
:104F000044120020C41000201CB56846FBF722FFA5
:104F10001748006801900020154908606846FBF7B3
:104F20001FFF0198002822D00198C006C00F00285A
:104F300001D003F0C5FC01980007C00F002801D084
:104F400003F054F901984007C00F002801D003F086
:104F50002DFD01988007C00F002801D003F0A4FCAC
:104F60000198C007C00F002801D003F0A3FC1CBDAE
:104F70003C01002070B529484078C007C00F0028C8
:104F80004AD00024002525486038007F002804D03E
:104F900022486038007F032803D1FCF71DF904463E
:104FA0001CE01E486038007F012817D11B4880385C
:104FB000C07C012811D1FCF7F5F804461748406879
:104FC000FF30D5308078002808D1002C02D1FBF7C3
:104FD00089FE03E0FBF762FE00E00125012C0DD104
:104FE0000F4808F0C5FC0E486838006C2021884343
:104FF0000B496839086408F029F90CE0002D0AD142
:1050000006484078202188430449487000208039B0
:10501000C87402F009FB00BF70BD000044120020FC
:105020002C11002010B5154840784007C00F00280B
:1050300023D00020FFF760FB00280ED00020FFF7F0
:10504000E9FA002802D10D49803908740C48006C37
:10505000022188430A4908640FE00420FFF74CFB53
:10506000002804D10520FFF747FB002805D004489D
:10507000006C022188430249086410BD44120020DC
:10508000C410002008B52B48007800902A48006C16
:1050900000284DD12748401E4078C007C00F002887
:1050A00007D02448401E4078400840002149491E4E
:1050B00048702048401E40784007C00F002807D0A5
:1050C0001C48401E4078042188431A49491E4870F4
:1050D0000120FFF7CFFE68460078C007C00F002808
:1050E00005D01548406C0168124845388847684625
:1050F00000784007C00F002810D00E483138FFF765
:10510000A1FAFFF779FA002808DD0A48401E407826
:1051100004218843001D0749491E4870FFF73CF9E8
:105120000448401E4078202188430249491E4870A7
:1051300008BD000045120020C410002008B5084832
:10514000006C00280BD1002100916846FFF712FA8D
:1051500068460078012801D107F052FE00BF08BD63
:10516000C4100020F0B591B004460D461646002C40
:1051700001D0002D02D1032011B0F0BD206800281D
:1051800008D06068002805D0A068002802D0E06838
:10519000002801D10320EFE7304604F049FC002845
:1051A00001D10920E8E7F9492046FFF783FAFF22F9
:1051B000E1320021F6480AF041F99122D2000021A3
:1051C000F4480AF03BF9F248F34948600121F248FB
:1051D000803881740120F04980394874EE48406875
:1051E00006700021EC484068E0300174EA484068ED
:1051F000FF302130C17701216846C17400218174DC
:105200000321417400210174E3484068FF30C1303C
:10521000049941610F2110A80170DF49496808789D
:1052200010A904F0EBFB0F900F98002801D001218A
:1052300000E00021D8484068FF30213041770A2142
:1052400010A80170D4494968087810A904F0D6FB69
:105250000F900F9841B2D04840680171062110A804
:105260000170CD494968087810A904F0C7FB0F9078
:105270000F9841B2C84840684171102110A80170D0
:10528000C5494968087810A904F0B8FB0F90C248D6
:105290000F9940680161112110A80170BE49496849
:1052A000087810A904F0AAFB0F90BB480F9940683A
:1052B0004161122110A80170B7494968087810A906
:1052C00004F09CFB0F90B4480F9940688161132152
:1052D00010A80170B0494968087810A904F08EFB45
:1052E0000F90AD480F994068C161142110A801705A
:1052F000A9494968087810A904F080FB0F90A648D6
:105300000F9940680162172110A80170A2494968ED
:10531000087810A904F072FB0F900F98C1B29E4854
:10532000406824304170182110A801709A494968DA
:10533000087810A904F062FB0F9097480F99406815
:10534000816295480F9940680163192110A8017086
:1053500091494968087810A904F050FB0F900F9804
:10536000C1B28D484068283001710F98C1B28A4897
:105370004068303001711E2110A8017086494968CB
:10538000087810A904F03AFB0F900F98C1B2824838
:105390004068243001751F2110A801707E494968BA
:1053A000087810A904F02AFB0F900F98C1B27A4830
:1053B000406824304175202110A801707649496861
:1053C000087810A904F01AFB0F9073480F994068F1
:1053D000C163212110A801706F494968087810A99C
:1053E00004F00CFB0F906C480F99406801640B218E
:1053F00010A8017068494968087810A904F0FEFAFD
:105400000F906549C0390F9888860C2110A801704B
:1054100061494968087810A904F0F0FA0F905E49D4
:10542000C0390F98C88601215B484068243001705C
:105430000A21594840688160062157484068017335
:1054400055484068816854484068F8304160524887
:105450004068017B50484068F83001724E4840680F
:1054600001694D484068F830C1604B484068416967
:1054700049484068F83001614748406881694648BA
:105480004068F830416144484068C169424840681A
:10549000F830816140484068016A3F484068F83010
:1054A000C1613D484068243001783B484068FF3086
:1054B0001930017004F088FB012137484068E03062
:1054C00041743648446485640020334948700121A2
:1054D00032480164002130484068FF308130416427
:1054E0002D484068FF30813081642D492B48683059
:1054F00008F040F92B492948803008F03BF92A4947
:105500002648983008F036F928492348883808F0AA
:1055100031F9684607F0E1FF1F484068FF30C130AD
:10552000019A00990261C16021491C48C164214867
:105530001A494C318860204808612048486020485A
:10554000C8602048016815484C30884700206946EB
:105550000873029010494968087802A904F05CFABF
:10556000194807F031F8002801D0112004E6174847
:10557000FFF704FB002801D01120FDE51448FEF7D9
:105580005BFF002826D01320F6E50000A1150008D7
:105590004C120020C40D002044120020C410002032
:1055A0002976000881750008D17500088573000808
:1055B000F97400083D740008917400084D750008E6
:1055C000C5740008FCF80008C9150008AB150008F0
:1055D000971500082249496808465030FFF7C2FB7A
:1055E000002801D01120C7E51E49486980470746B9
:1055F0000AF01CF91A4A5268E032507C194A916D3F
:1056000088471849C86A804700200D900E90002DE9
:1056100003D068680D90E8680E9011481C3805901A
:10562000483806903430079031300890401E40686A
:105630004C3009900A4840680A9009484068F830A0
:105640000B900748406850300C90074A0DA905A8F8
:10565000FEF787FE0120FFF70DFC00208CE500001F
:1056600044120020FCF800088D1500080548006C65
:10567000002805D104488078012801D10020704716
:105680000120FCE7C410002044120020F0B587B0D0
:10569000044602270020029001900090002C02D1C5
:1056A000032007B0F0BDFFF7E1FF002801D0012083
:1056B000F7E70020049014220021594809F0BEFEAB
:1056C0000120574948703C3988742078002804D05C
:1056D000012815D003283DD12BE00120009050492E
:1056E0003C3948746946087CE02188434030049086
:1056F00020790290A568A6890E21615601912AE0C1
:1057000001200090E07B082801DAE07B00E008201F
:1057100043493C3948746946087CE021884380301D
:10572000049020790290A568A6890E216156019106
:1057300011E0012000903A493C3948746946087CE0
:10574000E0218843E0300490656826890A2161568B
:10575000019100E000BF00BF022168460176304899
:1057600044304068FF301930017D684681762C490D
:1057700044314968087806A904F040F90590059875
:1057800041B20198814201DA019801E0059840B2E6
:105790000190009801283ED1214844304068E03013
:1057A000807C00281DD16946019808731C4844304C
:1057B0004068FF301930007D8873194944314968C9
:1057C0000878052203A904F0B2F9002807D068463A
:1057D000017B134844304068F830417001E00320F9
:1057E0005FE733462A4604A8029907F0D5F8074632
:1057F000002F0CD120780A491C3908770846603000
:10580000407840084000401C6031487003E00020B0
:1058100003493C390875FBF7CDFE384641E70000E7
:105820000012002001460220704700007CB50446AB
:105830000025002C01D103207CBD2078030008F056
:10584000B6FE351C22292D31373CE9E9E9E9E9E9C1
:10585000E9E9E9E9E9E9E9E9E9E9E9E9E9E9E9E9B8
:1058600041474E5B636A728679939AA0A6ACB2B840
:10587000BDC8C3CED4DAE4E0E9006A484068E0304D
:10588000007C2071CBE067484068FF30C130007E6B
:105890002071C4E006F088FE6060C0E006F088FE7B
:1058A0006060BCE05F484068E030807C2071B6E01A
:1058B0005C484068806C6060B1E05A484068C06CE9
:1058C0006060ACE057484068E030407C2071A6E062
:1058D00054484068FF302130C07F20719FE01D2078
:1058E000694608714F494968087801A904F086F8AB
:1058F00000900098606092E04A484068F830816A01
:10590000406AA16060608AE046484068C16A806A77
:10591000A160606083E043484068F830016BC06A72
:10592000A16060607BE03F484068416B006BA16014
:10593000606074E01B20694608713A49496808783C
:1059400001A904F05BF800900098606067E01A20FD
:105950006946087133494968087801A904F04EF88E
:105960000090009860605AE02E484068FF3019307F
:105970000078207153E02B484068F830C0686060C0
:105980004DE028484068F8300069606047E02548ED
:105990004068F8304069606041E022484068F83073
:1059A000806960603BE01F484068F830C069606013
:1059B00035E01C4840684079207130E01948406863
:1059C000F830407820712AE016484068007920714C
:1059D00025E014484068E030007E20711FE0114847
:1059E0004068F8304068606019E00E484068F83060
:1059F000007A207113E00B484068F830C06B60609B
:105A00000DE0FBF741FE606009E006484068006C6D
:105A1000606004E02046FEF7B2FC054600BF00BF10
:105A2000284609E744120020F0B585B00446002559
:105A3000002C02D1032005B0F0BDFE48006C02210D
:105A40000840022801D10120F5E72078030008F082
:105A5000AEFD361C212D343B41464B5865727F8C80
:105A600099A6B3C0F2FFEDECEBEAE9E8E7E6E5E47E
:105A7000E3E2E1E0DFDEDDDCDBDAD9D8D7D6D5D46E
:105A8000D3D2D1D0CFCECDCCCBE1207907F016FC4C
:105A9000054607E32079022806D02179E6484068C8
:105AA000FF30C130017600E00325FBE2606806F0BC
:105AB0008DFE002800D00325F4E2606806F09AFE0F
:105AC000002800D00325EDE22179DB484068E03072
:105AD0008174E7E2D849606849688864E2E2D6499F
